{
  "contractName": "Counter",
  "abi": [
    {
      "inputs": [],
      "stateMutability": "nonpayable",
      "type": "constructor"
    },
    {
      "inputs": [],
      "name": "counter",
      "outputs": [
        {
          "internalType": "uint256",
          "name": "",
          "type": "uint256"
        }
      ],
      "stateMutability": "view",
      "type": "function",
      "constant": true
    },
    {
      "inputs": [],
      "name": "count",
      "outputs": [],
      "stateMutability": "nonpayable",
      "type": "function"
    }
  ],
  "bytecode": "0x608060405234801561001057600080fd5b506000808190555061018c806100276000396000f3fe608060405234801561001057600080fd5b5060043610610053576000357c01000000000000000000000000000000000000000000000000000000009004806306661abd1461005857806361bc221a14610062575b600080fd5b610060610080565b005b61006a610097565b60405161007791906100ac565b60405180910390f35b600160005461008f91906100c7565b600081905550565b60005481565b6100a68161011d565b82525050565b60006020820190506100c1600083018461009d565b92915050565b60006100d28261011d565b91506100dd8361011d565b9250827fffffffffffffffffffffffffffffffffffffffffffffffffffffffffffffffff0382111561011257610111610127565b5b828201905092915050565b6000819050919050565b7f4e487b7100000000000000000000000000000000000000000000000000000000600052601160045260246000fdfea2646970667358221220b58b67930dcaaf6dbf1a28550f5415ba6c20f6226c5587746377ff22678a4c1964736f6c63430008000033",
  "immutableReferences": {},
  "source": "// SPDX-License-Identifier: MIT\npragma solidity 0.8.0;\n\ncontract Counter {\n    uint public counter;\n\n    constructor() {\n        counter = 0;\n    }\n\n    function count() public {\n        counter = counter + 1;\n    }\n\n}\n",
  "sourcePath": "/Users/hayden/dev/gopath/work/learnblockchain/w1_1_truffle/contracts/Counter.sol",
  "compiler": {
    "name": "solc",
    "version": "0.8.0+commit.c7dfd78e.Linux.g++"
  },
  "schemaVersion": "3.4.1",
  "updatedAt": "2022-03-07T15:32:07.475Z",
  "networkType": "ethereum",
  "devdoc": {
    "kind": "dev",
    "methods": {},
    "version": 1
  },
  "userdoc": {
    "kind": "user",
    "methods": {},
    "version": 1
  }
}